:020000040800F2
:1000000000500020ED1B0008911B00089D1B0008FC
:10001000A51B0008AD1B0008B51B00080000000070
:10002000000000000000000000000000BD1B0008F0
:10003000C91B000800000000D51B0008E11B0008D8
:10004000351C0008351C0008351C0008351C00084C
:10005000351C0008351C0008351C0008351C00083C
:10006000351C0008351C0008351C0008351C00082C
:10007000351C0008351C0008351C0008351C00081C
:10008000351C0008351C0008351C0008351C00080C
:10009000351C0008351C0008351C0008351C0008FC
:1000A000351C0008351C0008351C0008351C0008EC
:1000B000351C0008351C0008351C0008351C0008DC
:1000C000351C0008351C0008351C0008351C0008CC
:1000D000351C0008351C0008351C0008351C0008BC
:1000E000351C0008351C0008351C00080000000005
:1000F0000000000000000000000000000000000000
:0C01000000000000000000005FF808F1A3
:100110004FF0FF0C1CEAD0521EBF1CEAD15392EAEA
:100120000C0F93EA0C0F6FD01A4480EA010C4002C6
:1001300018BF5FEA41211ED04FF0006343EA501020
:1001400043EA5111A0FB01310CF00040B1F5000F62
:100150003EBF490041EAD3715B0040EA010062F111
:100160007F02FD2A1DD8B3F1004F40EBC25008BFFB
:1001700020F00100704790F0000F0CF0004C08BF19
:1001800049024CEA502040EA51207F3AC2BFD2F1E6
:10019000FF0340EAC250704740F400004FF00003F4
:1001A000013A5DDC12F1190FDCBF00F0004070472E
:1001B000C2F10002410021FA02F1C2F1200200FA6C
:1001C00002FC5FEA310040F1000053EA4C0308BF33
:1001D00020EADC70704792F0000F00F0004C02BF84
:1001E000400010F4000F013AF9D040EA0C0093F0FF
:1001F000000F01F0004C02BF490011F4000F013B59
:10020000F9D041EA0C018FE70CEAD15392EA0C0FC6
:1002100018BF93EA0C0F0AD030F0004C18BF31F031
:10022000004CD8D180EA010000F00040704790F007
:10023000000F17BF90F0004F084691F0000F91F0AB
:10024000004F14D092EA0C0F01D142020FD193EA71
:100250000C0F03D14B0218BF084608D180EA0100F9
:1002600000F0004040F0FE4040F40000704740F0D5
:10027000FE4040F44000704781F0004102E000BFC2
:1002800083F0004330B54FEA41044FEA430594EA56
:10029000050F08BF90EA020F1FBF54EA000C55EA91
:1002A000020C7FEA645C7FEA655C00F0E2804FEA62
:1002B0005454D4EB5555B8BF6D420CDD2C4480EA44
:1002C000020281EA030382EA000083EA010180EA74
:1002D000020281EA0303362D88BF30BD11F0004FC2
:1002E0004FEA01314FF4801C4CEA113102D04042F8
:1002F00061EB410113F0004F4FEA03334CEA133333
:1003000002D0524263EB430394EA050F00F0A7804A
:10031000A4F10104D5F1200E0DDB02FA0EFC22FA45
:1003200005F2801841F1000103FA0EF2801843FA39
:1003300005F359410EE0A5F120050EF1200E012A2A
:1003400003FA0EFC28BF4CF0020C43FA05F3C01868
:1003500051EBE37101F0004507D54FF0000EDCF1E1
:10036000000C7EEB00006EEB0101B1F5801F1BD38A
:10037000B1F5001F0CD349085FEA30004FEA3C0C8E
:1003800004F101044FEA445212F5800F80F09A8084
:10039000BCF1004F08BF5FEA500C50F1000041EB88
:1003A000045141EA050130BD5FEA4C0C404141EB8C
:1003B0000101013C28BFB1F5801FE9D291F0000F87
:1003C00004BF01460020B1FA81F308BF2033A3F136
:1003D0000B03B3F120020CDA0C3208DD02F1140C2D
:1003E000C2F10C0201FA0CF021FA02F10CE002F168
:1003F0001402D8BFC2F1200C01FA02F120FA0CFC61
:10040000DCBF41EA0C019040E41AA2BF01EB0451A9
:10041000294330BD6FEA04041F3C1CDA0C340EDCA7
:1004200004F11404C4F1200220FA04F001FA02F3EA
:1004300040EA030021FA04F345EA030130BDC4F1A8
:100440000C04C4F1200220FA02F001FA04F340EA9D
:100450000300294630BD21FA04F0294630BD94F04E
:10046000000F83F4801306BF81F480110134013D35
:100470004EE77FEA645C18BF7FEA655C29D094EAA6
:10048000050F08BF90EA020F05D054EA000C04BF24
:100490001946104630BD91EA030F1EBF002100200F
:1004A00030BD5FEA545C05D14000494128BF41F0AE
:1004B000004130BD14F580043CBF01F5801130BD12
:1004C00001F0004545F0FE4141F470014FF000009D
:1004D00030BD7FEA645C1ABF194610467FEA655C4E
:1004E0001CBF0B46024650EA013406BF52EA0335F0
:1004F00091EA030F41F4002130BD00BF90F0000FDE
:1005000004BF0021704730B54FF4806404F1320419
:100510004FF000054FF0000150E700BF90F0000FD2
:1005200004BF0021704730B54FF4806404F13204F9
:1005300010F0004548BF40424FF000013EE700BFC9
:1005400042004FEAE2014FEA31014FEA02701FBF59
:1005500012F07F4393F07F4F81F06051704732F08B
:100560007F4208BF704793F07F4F04BF41F40021E2
:10057000704730B54FF4607401F0004521F0004140
:100580001CE700BF50EA010208BF704730B54FF0CA
:1005900000050AE050EA010208BF704730B511F0CB
:1005A000004502D5404261EB41014FF4806404F103
:1005B00032045FEA915C3FF4D8AE4FF003025FEA89
:1005C000DC0C18BF03325FEADC0C18BF033202EB0D
:1005D000DC02C2F1200300FA03FC20FA02F001FA67
:1005E00003FE40EA0E0021FA02F11444BDE600BF0A
:1005F00070B54FF0FF0C4CF4E06C1CEA11541DBFB9
:100600001CEA135594EA0C0F95EA0C0F00F0DEF883
:100610002C4481EA030621EA4C5123EA4C5350EA68
:10062000013518BF52EA033541F4801143F48013B9
:1006300038D0A0FB02CE4FF00005E1FB02E506F04A
:100640000042E0FB03E54FF00006E1FB03569CF09F
:10065000000F18BF4EF0010EA4F1FF04B6F5007FA5
:1006600064F5407404D25FEA4E0E6D4146EB060617
:1006700042EAC62141EA55514FEAC52040EA5E50A0
:100680004FEACE2EB4F1FD0C88BFBCF5E06F1ED84A
:10069000BEF1004F08BF5FEA500E50F1000041EB81
:1006A000045170BD06F0004646EA010140EA02002E
:1006B00081EA0301B4EB5C04C2BFD4EB0C0541EA50
:1006C000045170BD41F480114FF0000E013C00F365
:1006D000AB8014F1360FDEBF002001F0004170BD89
:1006E000C4F10004203C35DA0C341BDC04F11404A2
:1006F000C4F1200500FA05F320FA04F001FA05F22E
:1007000040EA020001F0004221F0004110EBD370FA
:1007100021FA04F642EB06015EEA430E08BF20EA26
:10072000D37070BDC4F10C04C4F1200500FA04F3C9
:1007300020FA05F001FA04F240EA020001F000415B
:1007400010EBD37041F100015EEA430E08BF20EACE
:10075000D37070BDC4F1200500FA05F24EEA020E16
:1007600020FA04F301FA05F243EA020321FA04F045
:1007700001F0004121FA04F220EA020000EBD370FC
:100780005EEA430E08BF20EAD37070BD94F0000FFC
:100790000FD101F00046400041EB010111F4801F30
:1007A00008BF013CF7D041EA060195F0000F18BFE1
:1007B000704703F00046520043EB030313F4801F1D
:1007C00008BF013DF7D043EA0603704794EA0C0FD7
:1007D0000CEA135518BF95EA0C0F0CD050EA4106ED
:1007E00018BF52EA4306D1D181EA030101F000416A
:1007F0004FF0000070BD50EA410606BF1046194692
:1008000052EA430619D094EA0C0F02D150EA01369D
:1008100013D195EA0C0F05D152EA03361CBF1046DE
:1008200019460AD181EA030101F0004141F0FE417D
:1008300041F470014FF0000070BD41F0FE4141F401
:10084000780170BD70B54FF0FF0C4CF4E06C1CEA01
:1008500011541DBF1CEA135594EA0C0F95EA0C0FB6
:1008600000F0A7F8A4EB050481EA030E52EA033571
:100870004FEA013100F088804FEA03334FF0805592
:1008800045EA131343EA12634FEA022245EA1115BF
:1008900045EA10654FEA00260EF000419D4208BF70
:1008A000964244F1FD0404F5407402D25B084FEA1D
:1008B0003202B61A65EB03055B084FEA32024FF4C9
:1008C00080104FF4002CB6EB020E75EB030E22BF26
:1008D000B61A754640EA0C005B084FEA3202B6EBE6
:1008E000020E75EB030E22BFB61A754640EA5C0095
:1008F0005B084FEA3202B6EB020E75EB030E22BF25
:10090000B61A754640EA9C005B084FEA3202B6EB25
:10091000020E75EB030E22BFB61A754640EADC00E4
:1009200055EA060E18D04FEA051545EA16754FEA46
:1009300006164FEAC30343EA52734FEAC2025FEA64
:100940001C1CC0D111F4801F0BD141EA00014FF0F3
:1009500000004FF0004CB6E711F4801F04BF0143C4
:100960000020B4F1FD0C88BFBCF5E06F3FF6AFAEE0
:10097000B5EB030C04BFB6EB020C5FEA500C50F170
:10098000000041EB045170BD0EF0004E4EEA1131F3
:1009900014EB5C04C2BFD4EB0C0541EA045170BDFA
:1009A00041F480114FF0000E013C90E645EA060E3E
:1009B0008DE60CEA135594EA0C0F08BF95EA0C0F6C
:1009C0003FF43BAF94EA0C0F0AD150EA01347FF4B4
:1009D00034AF95EA0C0F7FF425AF104619462CE78B
:1009E00095EA0C0F06D152EA03353FF4FDAE1046EE
:1009F000194622E750EA410618BF52EA43067FF43F
:100A0000C5AE50EA41047FF40DAF52EA43057FF4CE
:100A1000EBAE12E74FEA4102B2F1E04324BFB3F577
:100A2000001CDCF1FE5C0DD901F0004C4FEAC00265
:100A30004CEA5070B2F1004F40EB830008BF20F049
:100A40000100704711F0804F21D113F13872BCBF03
:100A500001F00040704741F480114FEA5252C2F158
:100A60001802C2F1200C10FA0CF320FA02F018BFA1
:100A700040F001004FEAC1234FEAD32303FA0CFCF4
:100A800040EA0C0023FA02F34FEA4303CCE77FEA83
:100A9000625307D150EA01331EBF4FF0FE4040F4CD
:100AA0004000704701F0004040F0FE4040F400007C
:100AB000704700BF80F0004002E000BF81F00041BD
:100AC00042001FBF5FEA410392EA030F7FEA226CF4
:100AD0007FEA236C6AD04FEA1262D2EB1363C1BF84
:100AE000D218414048404140B8BF5B42192B88BFF3
:100AF000704710F0004F40F4000020F07F4018BF16
:100B0000404211F0004F41F4000121F07F4118BF35
:100B1000494292EA030F3FD0A2F1010241FA03FCDD
:100B200010EB0C00C3F1200301FA03F100F00043C5
:100B300002D5494260EB4000B0F5000F13D3B0F18D
:100B4000807F06D340084FEA310102F10102FE2AFC
:100B500051D2B1F1004F40EBC25008BF20F001006C
:100B600040EA03007047490040EB0000013A28BF0B
:100B7000B0F5000FEDD2B0FA80FCACF1080CB2EB8E
:100B80000C0200FA0CF0AABF00EBC250524218430C
:100B9000BCBFD0401843704792F0000F81F40001B1
:100BA00006BF80F400000132013BB5E74FEA410384
:100BB0007FEA226C18BF7FEA236C21D092EA030FF0
:100BC00004D092F0000F08BF0846704790EA010F6A
:100BD0001CBF0020704712F07F4F04D1400028BF97
:100BE00040F00040704712F100723CBF00F5000079
:100BF000704700F0004343F0FE4040F400007047AF
:100C00007FEA226216BF08467FEA2363014642025A
:100C100006BF5FEA412390EA010F40F4800070476D
:100C20004FF0000304E000BF10F0004348BF404213
:100C30005FEA000C08BF704743F0964301464FF04F
:100C400000001CE050EA010208BF70474FF00003AB
:100C50000AE000BF50EA010208BF704711F00043EC
:100C600002D5404261EB41015FEA010C02BF8446BC
:100C70000146002043F0B64308BFA3F18053A3F51B
:100C80000003BCFA8CF2083AA3EBC25310DB01FA62
:100C900002FC634400FA02FCC2F12002BCF1004FE6
:100CA00020FA02F243EB020008BF20F00100704777
:100CB00002F1200201FA02FCC2F1200250EA4C00CB
:100CC00021FA02F243EB020008BF20EADC70704711
:100CD00042000ED2B2F1FE4F0BD34FF09E03B3EBA6
:100CE000126209D44FEA002343F0004323FA02F0D2
:100CF00070474FF00000704712F1610F01D14202BE
:100D000002D14FF0FF3070474FF00000704700BF36
:100D10000348044B834202D0034B03B1184770478A
:100D20000000002000000020000000000548064BE5
:100D30001B1AD90F01EBA301491002D0034B03B1D9
:100D4000184770470000002000000020000000004D
:100D500010B5064C237843B9FFF7DAFF044B13B103
:100D60000448AFF300800123237010BD0000002071
:100D7000000000000C01000808B5054B1BB1054937
:100D80000548AFF30080BDE80840FFF7CFBF00BFC4
:100D900000000000040000200C01000880B485B0B1
:100DA00000AF786039600023FB600023FB727B6832
:100DB0005B68FB60FB6823F4702323F48073FB60A3
:100DC0003B681A683B681B791B021343FA6813439C
:100DD000FB607B68FA685A607B689B68FB60FA6816
:100DE000164B1340FB603B68DA683B689B681A430C
:100DF0003B685B795B001343FA681343FB607B68D5
:100E0000FA689A607B68DB6AFB60FB6823F4700316
:100E1000FB603B681B7C013BDAB2FB7A1343FB723D
:100E2000FB7A1B05FA681343FB607B68FA68DA6299
:100E300000BF1437BD4680BC704700BFFDF7F1FF0F
:100E400080B483B000AF78600B46FB70FB78002B5A
:100E500006D07B689B6843F001027B689A6005E0DE
:100E60007B689B6823F001027B689A6000BF0C37A7
:100E7000BD4680BC704780B483B000AF78607B68AB
:100E80009B6843F008027B689A6000BF0C37BD4640
:100E900080BC704780B485B000AF78600023FB73DE
:100EA0007B689B6803F00803002B02D00123FB73CF
:100EB00001E00023FB73FB7B18461437BD4680BC62
:100EC000704780B483B000AF78607B689B6843F064
:100ED00004027B689A6000BF0C37BD4680BC704737
:100EE00080B485B000AF78600023FB737B689B689B
:100EF00003F00403002B02D00123FB7301E0002365
:100F0000FB73FB7B18461437BD4680BC704780B42A
:100F100083B000AF78600B46FB70FB78002B06D0E7
:100F20007B689B6843F4A0027B689A6005E07B685D
:100F30009B6823F4A0027B689A6000BF0C37BD4613
:100F400080BC704780B485B000AF78600846114619
:100F50001A460346FB700B46BB7013467B7000239A
:100F6000FB600023BB60FB78092B23D97B68DB681F
:100F7000FB60FB78A3F10A0213465B0013440722CF
:100F800002FA03F3BB60BB68DB43FA681340FB6003
:100F90007978FB78A3F10A0213465B00134401FA47
:100FA00003F3BB60FA68BB681343FB607B68FA68B5
:100FB000DA601EE07B681B69FB60FA7813465B0011
:100FC0001344072202FA03F3BB60BB68DB43FA68F1
:100FD0001340FB607978FA7813465B00134401FAFA
:100FE00003F3BB60FA68BB681343FB607B68FA6875
:100FF0001A61BB78062B21D87B685B6BFB60BB78E2
:101000005A1E13469B0013441F2202FA03F3BB60CF
:10101000BB68DB43FA681340FB60F978BB785A1E63
:1010200013469B00134401FA03F3BB60FA68BB68E4
:101030001343FB607B68FA685A6347E0BB780C2B6C
:1010400021D87B681B6BFB60BB78DA1F13469B00C3
:1010500013441F2202FA03F3BB60BB68DB43FA6848
:101060001340FB60F978BB78DA1F13469B001344EA
:1010700001FA03F3BB60FA68BB681343FB607B684B
:10108000FA681A6322E07B68DB6AFB60BB78A3F135
:101090000D0213469B0013441F2202FA03F3BB60A8
:1010A000BB68DB43FA681340FB60F978BB78A3F1B7
:1010B0000D0213469B00134401FA03F3BB60FA6868
:1010C000BB681343FB607B68FA68DA6200BF1437C1
:1010D000BD4680BC704780B483B000AF78607B6849
:1010E000DB6C9BB218460C37BD4680BC704780B4A1
:1010F00085B000AF78600B46FB700023FB737B6804
:101100001A68FB781340002B02D00123FB7301E027
:101110000023FB73FB7B18461437BD4680BC704729
:1011200080B489B000AF786039600023FB61002390
:101130003B610023BB610023FB6000237B61002334
:10114000BB603B68DB7803F00F03FB613B68DB7837
:1011500003F01003002B05D03B689B781A46FB690F
:101160001343FB613B681B88DBB2002B44D07B68D8
:101170001B687B610023BB6138E00122BB6902FA76
:1011800003F3FB603B681B881A46FB6813403B6116
:101190003A69FB689A4226D1BB699B00FB600F222B
:1011A000FB6802FA03F3BB60BB68DB437A69134058
:1011B0007B61FA69FB6802FA03F37A6913437B6186
:1011C0003B68DB78282B05D10122BB699A407B68FC
:1011D0005A6108E03B68DB78482B04D10122BB69E7
:1011E0009A407B681A61BB690133BB61BB69072BFD
:1011F000C3D97B687A691A603B681B88FF2B46D984
:101200007B685B687B610023BB613AE0BB690833A4
:10121000012202FA03F3FB603B681B881A46FB6855
:1012200013403B613A69FB689A4227D1BB699B0036
:10123000FB600F22FB6802FA03F3BB60BB68DB4371
:101240007A6913407B61FA69FB6802FA03F37A69F1
:1012500013437B613B68DB78282B05D1BB690833DE
:1012600001229A407B685A613B68DB78482B05D1A4
:10127000BB69083301229A407B681A61BB6901335C
:10128000BB61BB69072BC1D97B687A695A6000BF13
:101290002437BD4680BC704780B483B000AF78600F
:1012A0000B467B8013467B707B78002B03D07A88BB
:1012B0007B681A6102E07A887B685A6100BF0C374C
:1012C000BD4680BC7047000080B485B000AF786038
:1012D0000023FB60094B5B68FB60FB6823F4404321
:1012E000FB60FA687B681343FB60044AFB68536049
:1012F00000BF1437BD4680BC704700BF00100240DD
:1013000080B483B000AF78600B46FB70FB78002B95
:1013100006D0094B9A6908497B6813438B6106E044
:10132000054B9A697B68DB43034913408B6100BF1F
:101330000C37BD4680BC70470010024080B500AF3E
:10134000154B1B68144A43F001031360124B5A6893
:101350001149124B13404B600F4B1B680E4A23F090
:10136000847323F4803313600B4B1B680A4A23F405
:1013700080231360084B5B68074A23F4FE03536025
:10138000054B4FF41F029A6000F00CF8044B4FF02D
:1013900000629A6000BF80BD001002400000FFF8AC
:1013A00000ED00E080B500AF00F002F800BF80BDA6
:1013B00080B483B000AF00237B6000233B603A4BD6
:1013C0001B68394A43F480331360374B1B6803F4BE
:1013D00000333B607B6801337B603B68002B03D1AB
:1013E0007B68B3F5A06FF0D12F4B1B6803F400337B
:1013F000002B02D001233B6001E000233B603B68EF
:10140000012B4BD1294B1B68284A43F01003136072
:10141000264B1B68254A23F003031360234B1B68EC
:10142000224A43F0020313601F4B1F4A5B6853605C
:101430001D4B1D4A5B6853601B4B5B681A4A43F4A3
:1014400080635360184B5B68174A23F47C13536026
:10145000154B5B68144A43F4E8135360124B1B6846
:10146000114A43F08073136000BF0F4B1B6803F0F9
:101470000073002BF9D00C4B5B680B4A23F003037D
:101480005360094B5B68084A43F00203536000BF96
:10149000054B5B6803F00C03082BF9D100BF0C3738
:1014A000BD4680BC704700BF0010024000200240D3
:1014B00080B586B000AF01214FF40070FFF720FF28
:1014C00001210420FFF71CFF0123BB820023FB75D1
:1014D0000323BB7507F1140319461E48FFF720FECE
:1014E0004FF40040FFF7F0FE0523012200211A48C7
:1014F000FFF728FD00233B6000233B710023FB60C6
:101500004FF46023BB6000237B7101233B743B4697
:1015100019461148FFF742FC01210F48FFF790FCE4
:101520000D48FFF7A8FC00BF0B48FFF7B3FC0346CC
:10153000002BF9D10848FFF7C4FC00BF0648FFF7AD
:10154000CFFC0346002BF9D100BF00BF1837BD46C2
:1015500080BD00BF000801400024014080B500AFFD
:1015600001210848FFF7D3FC00BF02210548FFF71F
:10157000BEFD0346002BF8D00248FFF7ACFD034642
:10158000184680BD0024014080B582B000AF012123
:101590000820FFF7B5FE1423FB710323BB714FF442
:1015A0008073BB803B1D19460D48FFF7B9FD4FF412
:1015B0000073BB803B1D19460948FFF7B1FD0122AE
:1015C0004FF480710648FFF767FE01224FF4007167
:1015D0000348FFF761FE00BF0837BD4680BD00BF6E
:1015E000000C014080B500AF01224FF400710B48A0
:1015F000FFF752FE01224FF480710848FFF74CFEBE
:1016000000224FF400710548FFF746FE00224FF418
:1016100080710248FFF740FE00BF80BD000C014012
:1016200080B500AF00224FF400710848FFF734FE88
:1016300001224FF480710548FFF72EFE01224FF47E
:1016400000710248FFF728FE00BF80BD000C01407A
:1016500080B584B000AF0346FB710023FB731EE02E
:10166000FB7B802242FA03F35AB297F9073013400A
:101670005BB2DBB21A464FF400711248FFF70CFE62
:1016800001224FF480710F48FFF706FE00224FF44D
:1016900080710C48FFF700FEFB7B0133FB73FB7B83
:1016A000072BDDD901224FF480710648FFF7F4FDC6
:1016B00000224FF480710348FFF7EEFD00BF1037A2
:1016C000BD4680BD000C014080B582B000AF03462E
:1016D000FB71FFF787FF7820FFF7BAFF0020FFF7C5
:1016E000B7FFFB791846FFF7B3FFFFF799FF00BF7D
:1016F0000837BD4680BD80B582B000AF0346FB71A0
:10170000FFF770FF7820FFF7A3FF4020FFF7A0FF4F
:10171000FB791846FFF79CFFFFF782FF00BF0837F1
:10172000BD4680BD80B582B000AF03460A46FB715E
:101730001346BB71FB7963F04F03DBB21846FFF72A
:10174000C3FFBB791B09DBB243F01003DBB21846C1
:10175000FFF7BAFFBB7903F00F03DBB21846FFF7C0
:10176000B3FF00BF0837BD4680BD80B582B000AF73
:101770000023BB7114E0BB7900211846FFF7D2FFAC
:101780000023FB7105E00020FFF7B5FFFB79013373
:10179000FB7197F90730002BF5DABB790133BB7188
:1017A000BB79072BE7D900BF00BF0837BD4680BD16
:1017B00080B584B000AF0346FB710B46BB71134686
:1017C0007B71FB79013BDBB25B00DAB2BB79013B99
:1017D000DBB2DB00DBB219461046FFF7A3FF0023A4
:1017E000FB730EE07B79A3F12002FB7B1B49120106
:1017F0000A4413441B781846FFF77DFFFB7B013337
:10180000FB73FB7B072BEDD9FB795B00DBB2013B64
:10181000DAB2BB79013BDBB2DB00DBB21946104622
:10182000FFF780FF0023FB730FE07B79A3F1200219
:10183000FB7B0833094912010A4413441B781846FC
:10184000FFF759FFFB7B0133FB73FB7B072BECD9C5
:1018500000BF00BF1037BD4680BD00BF9C1C000804
:1018600080B584B000AF03463A60FB710B46BB7194
:101870000023FB730EE0BA79FB7B1344D9B2FB7BE8
:101880003A6813441A78FB791846FFF791FFFB7BFF
:101890000133FB73FB7B3A6813441B78002BEAD1BE
:1018A00000BF00BF1037BD4680BD80B485B000AF1B
:1018B000786039600123FB6004E0FB687A6802FB12
:1018C00003F3FB603B685A1E3A60002BF5D1FB68BE
:1018D00018461437BD4680BC7047000090B585B0EF
:1018E00000AF3A601A460346FB710B46BB711346C4
:1018F0007B710023FB7323E0BA79FB7B1344DCB2DA
:101900007A79FB7BD31A013B19460A20FFF7CDFFFA
:1019100002463B68B3FBF2F10E4BA3FB0123DA084E
:1019200013469B0013445B00CA1AD3B23033DAB2B9
:10193000FB7921461846FFF73BFFFB7B0133FB7326
:10194000FA7B7B799A42D7D300BF00BF1437BD46DC
:1019500090BD00BFCDCCCCCC80B582B000AF002311
:101960007B600CE000233B6002E03B6801333B609E
:101970003B68B3F57A7FF8D37B6801337B607B6883
:10198000B3F57A7FEED3FFF7FFFDAE20FFF79CFEA5
:10199000D520FFF799FE8020FFF796FEA820FFF7DD
:1019A00093FE3F20FFF790FED320FFF78DFE00202F
:1019B000FFF78AFE4020FFF787FEA120FFF784FE95
:1019C000C820FFF781FEDA20FFF77EFE1220FFF726
:1019D0007BFE8120FFF778FECF20FFF775FED92030
:1019E000FFF772FEF120FFF76FFEDB20FFF76CFEC2
:1019F0003020FFF769FEA420FFF766FEA620FFF760
:101A000063FE8D20FFF760FE1420FFF75DFEAF2020
:101A1000FFF75AFEFFF7A9FE00BF0837BD4680BD9D
:101A200080B483B000AF78600D497A681346DB005C
:101A30001344DB004B600A4B00229A60084B0522DE
:101A40001A6000BF064B1B6803F48033002BF9D0EB
:101A5000034B04221A6000BF0C37BD4680BC7047A0
:101A600010E000E080B582B000AF786003E04FF492
:101A70007A70FFF7D5FF7B685A1E7A60002BF6D18B
:101A800000BF00BF0837BD4680BD00000000000059
:101A900080B500AFFFF760FFFFF70AFD364A01216E
:101AA0000120FFF7DDFE354A01210220FFF7D8FEB5
:101AB000FFF754FD03461A46314B1A80304B1B8802
:101AC0001846FFF7ADF803461846FEF739FD26A382
:101AD000D3E90023FEF7B6FE02460B461046194630
:101AE00023A3D3E90023FEF783FD02460B461046ED
:101AF0001946FEF78FFF0346224A1360204B1B88CE
:101B00001A4604230A210120FFF7E8FE1D4B1B683B
:101B10001846FFF7DDF80246012309210220FFF7EE
:101B2000DDFE184B1B6818491846FEF7F1FA03460C
:101B30001846FFF7CDF803469BB2144AA2FB0312E6
:101B40005209642101FB02F29B1A9BB21A4602233E
:101B50000B210220FFF7C2FE4FF4FA70FFF782FF5D
:101B600000BFA5E7AFF300800000000000FEAF401B
:101B70006666666666660A40801C00088C1C000863
:101B80001C000020200000200000C8421F85EB51EF
:101B900080B400AF00BFBD4680BC704780B400AFCA
:101BA00000BFFDE780B400AF00BFFDE780B400AF29
:101BB00000BFFDE780B400AF00BFFDE780B400AF19
:101BC00000BFBD4680BC704780B400AF00BFBD46BB
:101BD00080BC704780B400AF00BFBD4680BC70477A
:101BE00080B400AF00BFBD4680BC7047002103E059
:101BF0000B4B5B58435004310A480B4B42189A4236
:101C0000F6D30A4A02E0002342F8043B084B9A420A
:101C1000F9D3FFF793FB00F00FF8FFF739FF704798
:101C2000AC2200080000002000000020000000207E
:101C300024000020FEE7000070B500260C4D0D4B7F
:101C40005B1B9C10A64209D1002600F01FFB0A4D29
:101C50000A4B5B1B9C10A64205D170BD55F8043B96
:101C600098470136EEE755F8043B98470136F2E70E
:101C7000A4220008A4220008A4220008A822000828
:101C800041444356616C75653A000000566F6C74B0
:101C90006167653A302E30305600000000000000C9
:101CA000000000000000000000000000000000F83C
:101CB00000000000000000333000000000100C069F
:101CC000100C0600000000000000000040C078403A
:101CD000C0784000043F04043F040400007088FC06
:101CE00008300000001820FF211E0000F008F0005E
:101CF000E018000000211C031E211E0000F00888CF
:101D0000700000001E2123241927211010160E0038
:101D1000000000000000000000000000000000E0E3
:101D200018040200000000071820400000020418F8
:101D3000E00000000040201807000000404080F054
:101D4000804040000202010F01020200000000F08A
:101D5000000000000101011F01010100000000005E
:101D60000000000080B070000000000000000000D3
:101D7000000000000001010101010101000000005C
:101D800000000000003030000000000000000000F3
:101D900080601804006018060100000000E01008D0
:101DA0000810E000000F102020100F00001010F8A5
:101DB000000000000020203F2020000000700808E4
:101DC0000888700000302824222130000030088864
:101DD000884830000018202020110E000000C0208C
:101DE00010F8000000070424243F240000F80888AD
:101DF000880808000019212020110E0000E010883A
:101E000088180000000F112020110E00003808086B
:101E1000C83808000000003F00000000007088087B
:101E200008887000001C222121221C0000E01008FC
:101E30000810E0000000312222110F00000000C055
:101E4000C0000000000000303000000000000080F2
:101E500000000000000080600000000000008040E2
:101E600020100800000102040810200040404040FB
:101E7000404040000404040404040400000810204E
:101E80004080000000201008040201000070480893
:101E90000808F0000000003036010000C030C828FB
:101EA000E810E0000718272423140B000000C038B6
:101EB000E0000000203C23020227382008F8888830
:101EC00088700000203F202020110E00C03008083C
:101ED00008083800071820202010080008F8080813
:101EE0000810E000203F202020100F0008F888880C
:101EF000E8081000203F20202320180008F88888D8
:101F0000E8081000203F200003000000C03008084F
:101F10000838000007182020221E020008F80800D8
:101F20000008F808203F210101213F20000808F89F
:101F3000080800000020203F2020000000000808C2
:101F4000F8080800C08080807F00000008F888C082
:101F500028180800203F20012638200008F8080033
:101F600000000000203F20202020300008F8F8006A
:101F7000F8F80800203F003F003F200008F830C07C
:101F80000008F808203F200007183F00E01008086C
:101F90000810E0000F10202020100F0008F808089B
:101FA0000808F000203F210101010000E0100808AE
:101FB0000810E0000F18242438504F0008F88888D3
:101FC00088887000203F2000030C302000708808B3
:101FD000080838000038202121221C00180808F8C1
:101FE000080818000000203F2000000008F8080042
:101FF0000008F808001F202020201F000878880013
:1020000000C83808000007380E010000F80800F882
:102010000008F800033C0700073C0300081868802C
:102020008068180820302C03032C30200838C800A2
:10203000C83808000000203F2000000010080808F1
:10204000C83808002038262120201800000000FE93
:10205000020202000000007F40404000000C30C03F
:1020600000000000000000010638C000000202026B
:10207000FE000000004040407F000000000004021D
:102080000202040000000000000000000000000048
:102090000000000080808080808080800002020438
:1020A0000000000000000000000000000000808030
:1020B000808000000019242222223F2008F800809E
:1020C00080000000003F112020110E000000008061
:1020D00080800000000E11202020110000000080F0
:1020E0008088F800000E112020103F200000808022
:1020F00080800000001F222222221300008080F036
:10210000888888180020203F202000000000808060
:1021100080808000006B94949493600008F80080A5
:1021200080800000203F210000203F200080989800
:10213000000000000020203F202000000000008060
:102140009898000000C08080807F000008F80000A0
:1021500080808000203F24022D302000000808F8F5
:10216000000000000020203F2020000080808080B0
:1021700080808000203F20003F20003F8080008042
:1021800080800000203F210000203F200000808050
:1021900080800000001F202020201F008080008001
:1021A0008000000080FFA12020110E0000000080B0
:1021B00080808000000E112020A0FF8080808000A1
:1021C0008080800020203F212000010000008080CE
:1021D000808080000033242424241900008080E0C3
:1021E000808000000000001F202000008080000090
:1021F00000808000001F202020103F208080800071
:102200000080808000010E30080601008080008080
:10221000008080800F300C030C300F0000808000A5
:10222000808080000020312E0E31200080808000D0
:102230000080808080818E70180601000080808080
:10224000808080000021302C22213000000000001E
:10225000807C020200000000003F404000000000BF
:10226000FF00000000000000FF0000000002027CF0
:10227000800000000040403F000000000006010117
:10228000020204040000000000000000F8B500BFD6
:10229000F8BC08BC9E467047F8B500BFF8BC08BC47
:0422A0009E4670479F
:0422A400790D0008A8
:0422A800510D0008CC
:0400000508001BEDE7
:00000001FF
